{
  "_format": "hh-sol-artifact-1",
  "contractName": "Rentable",
  "sourceName": "contracts/Rentable.sol",
  "abi": [
    {
      "inputs": [
        {
          "internalType": "address",
          "name": "_USDC",
          "type": "address"
        },
        {
          "internalType": "uint256",
          "name": "_feeValue",
          "type": "uint256"
        }
      ],
      "stateMutability": "nonpayable",
      "type": "constructor"
    },
    {
      "anonymous": false,
      "inputs": [
        {
          "indexed": true,
          "internalType": "address",
          "name": "owner",
          "type": "address"
        },
        {
          "indexed": true,
          "internalType": "address",
          "name": "approved",
          "type": "address"
        },
        {
          "indexed": true,
          "internalType": "uint256",
          "name": "tokenId",
          "type": "uint256"
        }
      ],
      "name": "Approval",
      "type": "event"
    },
    {
      "anonymous": false,
      "inputs": [
        {
          "indexed": true,
          "internalType": "address",
          "name": "owner",
          "type": "address"
        },
        {
          "indexed": true,
          "internalType": "address",
          "name": "operator",
          "type": "address"
        },
        {
          "indexed": false,
          "internalType": "bool",
          "name": "approved",
          "type": "bool"
        }
      ],
      "name": "ApprovalForAll",
      "type": "event"
    },
    {
      "anonymous": false,
      "inputs": [
        {
          "indexed": true,
          "internalType": "address",
          "name": "from",
          "type": "address"
        },
        {
          "indexed": true,
          "internalType": "address",
          "name": "to",
          "type": "address"
        },
        {
          "indexed": true,
          "internalType": "uint256",
          "name": "tokenId",
          "type": "uint256"
        }
      ],
      "name": "Transfer",
      "type": "event"
    },
    {
      "inputs": [
        {
          "internalType": "address",
          "name": "to",
          "type": "address"
        },
        {
          "internalType": "uint256",
          "name": "tokenId",
          "type": "uint256"
        }
      ],
      "name": "approve",
      "outputs": [],
      "stateMutability": "nonpayable",
      "type": "function"
    },
    {
      "inputs": [
        {
          "internalType": "address",
          "name": "owner",
          "type": "address"
        }
      ],
      "name": "balanceOf",
      "outputs": [
        {
          "internalType": "uint256",
          "name": "",
          "type": "uint256"
        }
      ],
      "stateMutability": "view",
      "type": "function"
    },
    {
      "inputs": [
        {
          "internalType": "address",
          "name": "_tokenAddr",
          "type": "address"
        },
        {
          "internalType": "uint256",
          "name": "_tokenId",
          "type": "uint256"
        },
        {
          "internalType": "uint256",
          "name": "_deposit",
          "type": "uint256"
        },
        {
          "internalType": "uint256",
          "name": "_fee",
          "type": "uint256"
        },
        {
          "internalType": "uint256",
          "name": "_duration",
          "type": "uint256"
        }
      ],
      "name": "createRentalUnit",
      "outputs": [],
      "stateMutability": "nonpayable",
      "type": "function"
    },
    {
      "inputs": [
        {
          "internalType": "uint256",
          "name": "tokenId",
          "type": "uint256"
        }
      ],
      "name": "getApproved",
      "outputs": [
        {
          "internalType": "address",
          "name": "",
          "type": "address"
        }
      ],
      "stateMutability": "view",
      "type": "function"
    },
    {
      "inputs": [
        {
          "internalType": "uint256",
          "name": "unitId",
          "type": "uint256"
        }
      ],
      "name": "getRentalUnit",
      "outputs": [
        {
          "components": [
            {
              "internalType": "address",
              "name": "tokenAddr",
              "type": "address"
            },
            {
              "internalType": "uint256",
              "name": "tokenId",
              "type": "uint256"
            },
            {
              "internalType": "uint256",
              "name": "deposit",
              "type": "uint256"
            },
            {
              "internalType": "uint256",
              "name": "fee",
              "type": "uint256"
            },
            {
              "internalType": "uint256",
              "name": "duration",
              "type": "uint256"
            },
            {
              "internalType": "uint256",
              "name": "expiry",
              "type": "uint256"
            },
            {
              "internalType": "address",
              "name": "renter",
              "type": "address"
            },
            {
              "internalType": "bool",
              "name": "rented",
              "type": "bool"
            },
            {
              "internalType": "bool",
              "name": "complete",
              "type": "bool"
            }
          ],
          "internalType": "struct Rentable.RentalUnit",
          "name": "_unit",
          "type": "tuple"
        }
      ],
      "stateMutability": "view",
      "type": "function"
    },
    {
      "inputs": [
        {
          "internalType": "address",
          "name": "owner",
          "type": "address"
        },
        {
          "internalType": "address",
          "name": "operator",
          "type": "address"
        }
      ],
      "name": "isApprovedForAll",
      "outputs": [
        {
          "internalType": "bool",
          "name": "",
          "type": "bool"
        }
      ],
      "stateMutability": "view",
      "type": "function"
    },
    {
      "inputs": [
        {
          "internalType": "uint256",
          "name": "_unitId",
          "type": "uint256"
        }
      ],
      "name": "liquidateNFT",
      "outputs": [],
      "stateMutability": "nonpayable",
      "type": "function"
    },
    {
      "inputs": [],
      "name": "liquidateNFTLoop",
      "outputs": [],
      "stateMutability": "nonpayable",
      "type": "function"
    },
    {
      "inputs": [],
      "name": "name",
      "outputs": [
        {
          "internalType": "string",
          "name": "",
          "type": "string"
        }
      ],
      "stateMutability": "view",
      "type": "function"
    },
    {
      "inputs": [
        {
          "internalType": "uint256",
          "name": "tokenId",
          "type": "uint256"
        }
      ],
      "name": "ownerOf",
      "outputs": [
        {
          "internalType": "address",
          "name": "",
          "type": "address"
        }
      ],
      "stateMutability": "view",
      "type": "function"
    },
    {
      "inputs": [
        {
          "internalType": "uint256",
          "name": "_unitId",
          "type": "uint256"
        }
      ],
      "name": "rentNFT",
      "outputs": [],
      "stateMutability": "nonpayable",
      "type": "function"
    },
    {
      "inputs": [
        {
          "internalType": "uint256",
          "name": "_unitId",
          "type": "uint256"
        }
      ],
      "name": "returnNFT",
      "outputs": [],
      "stateMutability": "nonpayable",
      "type": "function"
    },
    {
      "inputs": [
        {
          "internalType": "address",
          "name": "from",
          "type": "address"
        },
        {
          "internalType": "address",
          "name": "to",
          "type": "address"
        },
        {
          "internalType": "uint256",
          "name": "tokenId",
          "type": "uint256"
        }
      ],
      "name": "safeTransferFrom",
      "outputs": [],
      "stateMutability": "nonpayable",
      "type": "function"
    },
    {
      "inputs": [
        {
          "internalType": "address",
          "name": "from",
          "type": "address"
        },
        {
          "internalType": "address",
          "name": "to",
          "type": "address"
        },
        {
          "internalType": "uint256",
          "name": "tokenId",
          "type": "uint256"
        },
        {
          "internalType": "bytes",
          "name": "data",
          "type": "bytes"
        }
      ],
      "name": "safeTransferFrom",
      "outputs": [],
      "stateMutability": "nonpayable",
      "type": "function"
    },
    {
      "inputs": [
        {
          "internalType": "address",
          "name": "operator",
          "type": "address"
        },
        {
          "internalType": "bool",
          "name": "approved",
          "type": "bool"
        }
      ],
      "name": "setApprovalForAll",
      "outputs": [],
      "stateMutability": "nonpayable",
      "type": "function"
    },
    {
      "inputs": [
        {
          "internalType": "bytes4",
          "name": "interfaceId",
          "type": "bytes4"
        }
      ],
      "name": "supportsInterface",
      "outputs": [
        {
          "internalType": "bool",
          "name": "",
          "type": "bool"
        }
      ],
      "stateMutability": "view",
      "type": "function"
    },
    {
      "inputs": [],
      "name": "symbol",
      "outputs": [
        {
          "internalType": "string",
          "name": "",
          "type": "string"
        }
      ],
      "stateMutability": "view",
      "type": "function"
    },
    {
      "inputs": [
        {
          "internalType": "uint256",
          "name": "index",
          "type": "uint256"
        }
      ],
      "name": "tokenByIndex",
      "outputs": [
        {
          "internalType": "uint256",
          "name": "",
          "type": "uint256"
        }
      ],
      "stateMutability": "view",
      "type": "function"
    },
    {
      "inputs": [
        {
          "internalType": "address",
          "name": "owner",
          "type": "address"
        },
        {
          "internalType": "uint256",
          "name": "index",
          "type": "uint256"
        }
      ],
      "name": "tokenOfOwnerByIndex",
      "outputs": [
        {
          "internalType": "uint256",
          "name": "",
          "type": "uint256"
        }
      ],
      "stateMutability": "view",
      "type": "function"
    },
    {
      "inputs": [
        {
          "internalType": "uint256",
          "name": "tokenId",
          "type": "uint256"
        }
      ],
      "name": "tokenURI",
      "outputs": [
        {
          "internalType": "string",
          "name": "",
          "type": "string"
        }
      ],
      "stateMutability": "view",
      "type": "function"
    },
    {
      "inputs": [],
      "name": "totalSupply",
      "outputs": [
        {
          "internalType": "uint256",
          "name": "",
          "type": "uint256"
        }
      ],
      "stateMutability": "view",
      "type": "function"
    },
    {
      "inputs": [
        {
          "internalType": "address",
          "name": "from",
          "type": "address"
        },
        {
          "internalType": "address",
          "name": "to",
          "type": "address"
        },
        {
          "internalType": "uint256",
          "name": "tokenId",
          "type": "uint256"
        }
      ],
      "name": "transferFrom",
      "outputs": [],
      "stateMutability": "nonpayable",
      "type": "function"
    }
  ],
  "bytecode": "0x60806040523480156200001157600080fd5b5060405162004d4d38038062004d4d83398181016040528101906200003791906200027c565b6040518060400160405280600881526020017f52656e7461626c650000000000000000000000000000000000000000000000008152506040518060400160405280600481526020017f52454e54000000000000000000000000000000000000000000000000000000008152508160009080519060200190620000bb92919062000127565b508060019080519060200190620000d492919062000127565b50505081600c60006101000a81548173ffffffffffffffffffffffffffffffffffffffff021916908373ffffffffffffffffffffffffffffffffffffffff16021790555080600a81905550505062000328565b8280546200013590620002f2565b90600052602060002090601f016020900481019282620001595760008555620001a5565b82601f106200017457805160ff1916838001178555620001a5565b82800160010185558215620001a5579182015b82811115620001a457825182559160200191906001019062000187565b5b509050620001b49190620001b8565b5090565b5b80821115620001d3576000816000905550600101620001b9565b5090565b600080fd5b600073ffffffffffffffffffffffffffffffffffffffff82169050919050565b60006200020982620001dc565b9050919050565b6200021b81620001fc565b81146200022757600080fd5b50565b6000815190506200023b8162000210565b92915050565b6000819050919050565b620002568162000241565b81146200026257600080fd5b50565b60008151905062000276816200024b565b92915050565b60008060408385031215620002965762000295620001d7565b5b6000620002a6858286016200022a565b9250506020620002b98582860162000265565b9150509250929050565b7f4e487b7100000000000000000000000000000000000000000000000000000000600052602260045260246000fd5b600060028204905060018216806200030b57607f821691505b60208210811415620003225762000321620002c3565b5b50919050565b614a1580620003386000396000f3fe608060405234801561001057600080fd5b50600436106101425760003560e01c806370a08231116100b8578063c87b56dd1161007c578063c87b56dd14610385578063e985e9c5146103b5578063eba16733146103e5578063f8a211a514610401578063f95dc2321461040b578063fc0ac4be1461042757610142565b806370a08231146102e357806395d89b4114610313578063a22cb46514610331578063b0cd2aa01461034d578063b88d4fde1461036957610142565b806318160ddd1161010a57806318160ddd146101fd57806323b872dd1461021b5780632f745c591461023757806342842e0e146102675780634f6ccce7146102835780636352211e146102b357610142565b806301ffc9a71461014757806306fdde0314610177578063081812fc14610195578063095ea7b3146101c557806314364f1d146101e1575b600080fd5b610161600480360381019061015c9190613236565b610457565b60405161016e919061327e565b60405180910390f35b61017f6104d1565b60405161018c9190613332565b60405180910390f35b6101af60048036038101906101aa919061338a565b610563565b6040516101bc91906133f8565b60405180910390f35b6101df60048036038101906101da919061343f565b6105a9565b005b6101fb60048036038101906101f6919061338a565b6106c1565b005b610205610b3e565b604051610212919061348e565b60405180910390f35b610235600480360381019061023091906134a9565b610b4b565b005b610251600480360381019061024c919061343f565b610bab565b60405161025e919061348e565b60405180910390f35b610281600480360381019061027c91906134a9565b610c50565b005b61029d6004803603810190610298919061338a565b610c70565b6040516102aa919061348e565b60405180910390f35b6102cd60048036038101906102c8919061338a565b610ce1565b6040516102da91906133f8565b60405180910390f35b6102fd60048036038101906102f891906134fc565b610d93565b60405161030a919061348e565b60405180910390f35b61031b610e4b565b6040516103289190613332565b60405180910390f35b61034b60048036038101906103469190613555565b610edd565b005b6103676004803603810190610362919061338a565b610ef3565b005b610383600480360381019061037e91906136ca565b61130d565b005b61039f600480360381019061039a919061338a565b61136f565b6040516103ac9190613332565b60405180910390f35b6103cf60048036038101906103ca919061374d565b6113d7565b6040516103dc919061327e565b60405180910390f35b6103ff60048036038101906103fa919061378d565b61146b565b005b610409611803565b005b6104256004803603810190610420919061338a565b611a80565b005b610441600480360381019061043c919061338a565b611dde565b60405161044e91906138ec565b60405180910390f35b60007f780e9d63000000000000000000000000000000000000000000000000000000007bffffffffffffffffffffffffffffffffffffffffffffffffffffffff1916827bffffffffffffffffffffffffffffffffffffffffffffffffffffffff191614806104ca57506104c982611f20565b5b9050919050565b6060600080546104e090613937565b80601f016020809104026020016040519081016040528092919081815260200182805461050c90613937565b80156105595780601f1061052e57610100808354040283529160200191610559565b820191906000526020600020905b81548152906001019060200180831161053c57829003601f168201915b5050505050905090565b600061056e82612002565b6004600083815260200190815260200160002060009054906101000a900473ffffffffffffffffffffffffffffffffffffffff169050919050565b60006105b482610ce1565b90508073ffffffffffffffffffffffffffffffffffffffff168373ffffffffffffffffffffffffffffffffffffffff161415610625576040517f08c379a000000000000000000000000000000000000000000000000000000000815260040161061c906139db565b60405180910390fd5b8073ffffffffffffffffffffffffffffffffffffffff1661064461204d565b73ffffffffffffffffffffffffffffffffffffffff16148061067357506106728161066d61204d565b6113d7565b5b6106b2576040517f08c379a00000000000000000000000000000000000000000000000000000000081526004016106a990613a6d565b60405180910390fd5b6106bc8383612055565b505050565b6106ca8161210e565b610709576040517f08c379a000000000000000000000000000000000000000000000000000000000815260040161070090613ad9565b60405180910390fd5b61071281610ce1565b73ffffffffffffffffffffffffffffffffffffffff163373ffffffffffffffffffffffffffffffffffffffff161415610780576040517f08c379a000000000000000000000000000000000000000000000000000000000815260040161077790613b45565b60405180910390fd5b60006107c16103e86107b3600a54600d60008781526020019081526020016000206003015461217a90919063ffffffff16565b61219090919063ffffffff16565b9050600061081682610808600d600087815260200190815260200160002060020154600d6000888152602001908152602001600020600301546121a690919063ffffffff16565b6121a690919063ffffffff16565b905080600c60009054906101000a900473ffffffffffffffffffffffffffffffffffffffff1673ffffffffffffffffffffffffffffffffffffffff166370a08231336040518263ffffffff1660e01b815260040161087491906133f8565b60206040518083038186803b15801561088c57600080fd5b505afa1580156108a0573d6000803e3d6000fd5b505050506040513d601f19601f820116820180604052508101906108c49190613b7a565b1015610905576040517f08c379a00000000000000000000000000000000000000000000000000000000081526004016108fc90613bf3565b60405180910390fd5b61092e42600d6000868152602001908152602001600020600401546121a690919063ffffffff16565b600d60008581526020019081526020016000206005018190555033600d600085815260200190815260200160002060060160006101000a81548173ffffffffffffffffffffffffffffffffffffffff021916908373ffffffffffffffffffffffffffffffffffffffff1602179055506001600d600085815260200190815260200160002060060160146101000a81548160ff021916908315150217905550600c60009054906101000a900473ffffffffffffffffffffffffffffffffffffffff1673ffffffffffffffffffffffffffffffffffffffff166323b872dd3330846040518463ffffffff1660e01b8152600401610a2b93929190613c13565b602060405180830381600087803b158015610a4557600080fd5b505af1158015610a59573d6000803e3d6000fd5b505050506040513d601f19601f82011682018060405250810190610a7d9190613c5f565b50600d600084815260200190815260200160002060000160009054906101000a900473ffffffffffffffffffffffffffffffffffffffff1673ffffffffffffffffffffffffffffffffffffffff166323b872dd3033600d6000888152602001908152602001600020600101546040518463ffffffff1660e01b8152600401610b0793929190613c13565b600060405180830381600087803b158015610b2157600080fd5b505af1158015610b35573d6000803e3d6000fd5b50505050505050565b6000600880549050905090565b610b5c610b5661204d565b826121bc565b610b9b576040517f08c379a0000000000000000000000000000000000000000000000000000000008152600401610b9290613cfe565b60405180910390fd5b610ba6838383612251565b505050565b6000610bb683610d93565b8210610bf7576040517f08c379a0000000000000000000000000000000000000000000000000000000008152600401610bee90613d90565b60405180910390fd5b600660008473ffffffffffffffffffffffffffffffffffffffff1673ffffffffffffffffffffffffffffffffffffffff168152602001908152602001600020600083815260200190815260200160002054905092915050565b610c6b8383836040518060200160405280600081525061130d565b505050565b6000610c7a610b3e565b8210610cbb576040517f08c379a0000000000000000000000000000000000000000000000000000000008152600401610cb290613e22565b60405180910390fd5b60088281548110610ccf57610cce613e42565b5b90600052602060002001549050919050565b6000806002600084815260200190815260200160002060009054906101000a900473ffffffffffffffffffffffffffffffffffffffff169050600073ffffffffffffffffffffffffffffffffffffffff168173ffffffffffffffffffffffffffffffffffffffff161415610d8a576040517f08c379a0000000000000000000000000000000000000000000000000000000008152600401610d8190613ebd565b60405180910390fd5b80915050919050565b60008073ffffffffffffffffffffffffffffffffffffffff168273ffffffffffffffffffffffffffffffffffffffff161415610e04576040517f08c379a0000000000000000000000000000000000000000000000000000000008152600401610dfb90613f4f565b60405180910390fd5b600360008373ffffffffffffffffffffffffffffffffffffffff1673ffffffffffffffffffffffffffffffffffffffff168152602001908152602001600020549050919050565b606060018054610e5a90613937565b80601f0160208091040260200160405190810160405280929190818152602001828054610e8690613937565b8015610ed35780601f10610ea857610100808354040283529160200191610ed3565b820191906000526020600020905b815481529060010190602001808311610eb657829003601f168201915b5050505050905090565b610eef610ee861204d565b83836124b8565b5050565b610efc8161210e565b610f3b576040517f08c379a0000000000000000000000000000000000000000000000000000000008152600401610f3290613ad9565b60405180910390fd5b6000610f4682610ce1565b90503373ffffffffffffffffffffffffffffffffffffffff16600d600084815260200190815260200160002060000160009054906101000a900473ffffffffffffffffffffffffffffffffffffffff1673ffffffffffffffffffffffffffffffffffffffff16636352211e600d6000868152602001908152602001600020600101546040518263ffffffff1660e01b8152600401610fe4919061348e565b60206040518083038186803b158015610ffc57600080fd5b505afa158015611010573d6000803e3d6000fd5b505050506040513d601f19601f820116820180604052508101906110349190613f84565b73ffffffffffffffffffffffffffffffffffffffff161461108a576040517f08c379a000000000000000000000000000000000000000000000000000000000815260040161108190613ffd565b60405180910390fd5b6001600d600084815260200190815260200160002060060160156101000a81548160ff0219169083151502179055506110c282612625565b600c60009054906101000a900473ffffffffffffffffffffffffffffffffffffffff1673ffffffffffffffffffffffffffffffffffffffff1663a9059cbb33600d6000868152602001908152602001600020600201546040518363ffffffff1660e01b815260040161113592919061401d565b602060405180830381600087803b15801561114f57600080fd5b505af1158015611163573d6000803e3d6000fd5b505050506040513d601f19601f820116820180604052508101906111879190613c5f565b50600c60009054906101000a900473ffffffffffffffffffffffffffffffffffffffff1673ffffffffffffffffffffffffffffffffffffffff1663a9059cbb82600d6000868152602001908152602001600020600301546040518363ffffffff1660e01b81526004016111fb92919061401d565b602060405180830381600087803b15801561121557600080fd5b505af1158015611229573d6000803e3d6000fd5b505050506040513d601f19601f8201168201806040525081019061124d9190613c5f565b50600d600083815260200190815260200160002060000160009054906101000a900473ffffffffffffffffffffffffffffffffffffffff1673ffffffffffffffffffffffffffffffffffffffff166323b872dd3383600d6000878152602001908152602001600020600101546040518463ffffffff1660e01b81526004016112d793929190613c13565b600060405180830381600087803b1580156112f157600080fd5b505af1158015611305573d6000803e3d6000fd5b505050505050565b61131e61131861204d565b836121bc565b61135d576040517f08c379a000000000000000000000000000000000000000000000000000000000815260040161135490613cfe565b60405180910390fd5b61136984848484612742565b50505050565b606061137a82612002565b600061138461279e565b905060008151116113a457604051806020016040528060008152506113cf565b806113ae846127b5565b6040516020016113bf929190614082565b6040516020818303038152906040525b915050919050565b6000600560008473ffffffffffffffffffffffffffffffffffffffff1673ffffffffffffffffffffffffffffffffffffffff16815260200190815260200160002060008373ffffffffffffffffffffffffffffffffffffffff1673ffffffffffffffffffffffffffffffffffffffff16815260200190815260200160002060009054906101000a900460ff16905092915050565b600073ffffffffffffffffffffffffffffffffffffffff168573ffffffffffffffffffffffffffffffffffffffff1614156114db576040517f08c379a00000000000000000000000000000000000000000000000000000000081526004016114d290614118565b60405180910390fd5b6000821161151e576040517f08c379a000000000000000000000000000000000000000000000000000000000815260040161151590614184565b60405180910390fd5b60008311611561576040517f08c379a0000000000000000000000000000000000000000000000000000000008152600401611558906141f0565b60405180910390fd5b600081116115a4576040517f08c379a000000000000000000000000000000000000000000000000000000000815260040161159b9061425c565b60405180910390fd5b3373ffffffffffffffffffffffffffffffffffffffff168573ffffffffffffffffffffffffffffffffffffffff16636352211e866040518263ffffffff1660e01b81526004016115f4919061348e565b60206040518083038186803b15801561160c57600080fd5b505afa158015611620573d6000803e3d6000fd5b505050506040513d601f19601f820116820180604052508101906116449190613f84565b73ffffffffffffffffffffffffffffffffffffffff161461169a576040517f08c379a0000000000000000000000000000000000000000000000000000000008152600401611691906142c8565b60405180910390fd5b84600d6000600b54815260200190815260200160002060000160006101000a81548173ffffffffffffffffffffffffffffffffffffffff021916908373ffffffffffffffffffffffffffffffffffffffff16021790555083600d6000600b5481526020019081526020016000206001018190555082600d6000600b5481526020019081526020016000206002018190555081600d6000600b5481526020019081526020016000206003018190555080600d6000600b5481526020019081526020016000206004018190555061177133600b54612916565b6117876001600b546121a690919063ffffffff16565b600b819055508473ffffffffffffffffffffffffffffffffffffffff166323b872dd3330876040518463ffffffff1660e01b81526004016117ca93929190613c13565b600060405180830381600087803b1580156117e457600080fd5b505af11580156117f8573d6000803e3d6000fd5b505050505050505050565b60005b600b54811015611a7d576118198161210e565b61182257611a6a565b600d600082815260200190815260200160002060060160159054906101000a900460ff168015611867575042600d600083815260200190815260200160002060050154105b15611a6957600061187782610ce1565b905060006118a56002600d60008681526020019081526020016000206003015461219090919063ffffffff16565b905060006118fa826118ec600d600088815260200190815260200160002060030154600d6000898152602001908152602001600020600201546121a690919063ffffffff16565b612af090919063ffffffff16565b905061190584612625565b600c60009054906101000a900473ffffffffffffffffffffffffffffffffffffffff1673ffffffffffffffffffffffffffffffffffffffff1663a9059cbb84836040518363ffffffff1660e01b815260040161196292919061401d565b602060405180830381600087803b15801561197c57600080fd5b505af1158015611990573d6000803e3d6000fd5b505050506040513d601f19601f820116820180604052508101906119b49190613c5f565b50600c60009054906101000a900473ffffffffffffffffffffffffffffffffffffffff1673ffffffffffffffffffffffffffffffffffffffff1663a9059cbb33846040518363ffffffff1660e01b8152600401611a1292919061401d565b602060405180830381600087803b158015611a2c57600080fd5b505af1158015611a40573d6000803e3d6000fd5b505050506040513d601f19601f82011682018060405250810190611a649190613c5f565b505050505b5b8080611a7590614317565b915050611806565b50565b611a898161210e565b611ac8576040517f08c379a0000000000000000000000000000000000000000000000000000000008152600401611abf90613ad9565b60405180910390fd5b600d600082815260200190815260200160002060060160149054906101000a900460ff168015611b195750600d600082815260200190815260200160002060060160159054906101000a900460ff16155b611b58576040517f08c379a0000000000000000000000000000000000000000000000000000000008152600401611b4f906143d2565b60405180910390fd5b42600d60008381526020019081526020016000206005015410611bb0576040517f08c379a0000000000000000000000000000000000000000000000000000000008152600401611ba79061443e565b60405180910390fd5b6000611bbb82610ce1565b90506001600d600084815260200190815260200160002060060160156101000a81548160ff0219169083151502179055506000611c186002600d60008681526020019081526020016000206003015461219090919063ffffffff16565b90506000611c6d82611c5f600d600088815260200190815260200160002060030154600d6000898152602001908152602001600020600201546121a690919063ffffffff16565b612af090919063ffffffff16565b9050611c7884612625565b600c60009054906101000a900473ffffffffffffffffffffffffffffffffffffffff1673ffffffffffffffffffffffffffffffffffffffff1663a9059cbb84836040518363ffffffff1660e01b8152600401611cd592919061401d565b602060405180830381600087803b158015611cef57600080fd5b505af1158015611d03573d6000803e3d6000fd5b505050506040513d601f19601f82011682018060405250810190611d279190613c5f565b50600c60009054906101000a900473ffffffffffffffffffffffffffffffffffffffff1673ffffffffffffffffffffffffffffffffffffffff1663a9059cbb33846040518363ffffffff1660e01b8152600401611d8592919061401d565b602060405180830381600087803b158015611d9f57600080fd5b505af1158015611db3573d6000803e3d6000fd5b505050506040513d601f19601f82011682018060405250810190611dd79190613c5f565b5050505050565b611de661314e565b600d6000838152602001908152602001600020604051806101200160405290816000820160009054906101000a900473ffffffffffffffffffffffffffffffffffffffff1673ffffffffffffffffffffffffffffffffffffffff1673ffffffffffffffffffffffffffffffffffffffff16815260200160018201548152602001600282015481526020016003820154815260200160048201548152602001600582015481526020016006820160009054906101000a900473ffffffffffffffffffffffffffffffffffffffff1673ffffffffffffffffffffffffffffffffffffffff1673ffffffffffffffffffffffffffffffffffffffff1681526020016006820160149054906101000a900460ff161515151581526020016006820160159054906101000a900460ff1615151515815250509050919050565b60007f80ac58cd000000000000000000000000000000000000000000000000000000007bffffffffffffffffffffffffffffffffffffffffffffffffffffffff1916827bffffffffffffffffffffffffffffffffffffffffffffffffffffffff19161480611feb57507f5b5e139f000000000000000000000000000000000000000000000000000000007bffffffffffffffffffffffffffffffffffffffffffffffffffffffff1916827bffffffffffffffffffffffffffffffffffffffffffffffffffffffff1916145b80611ffb5750611ffa82612b06565b5b9050919050565b61200b8161210e565b61204a576040517f08c379a000000000000000000000000000000000000000000000000000000000815260040161204190613ebd565b60405180910390fd5b50565b600033905090565b816004600083815260200190815260200160002060006101000a81548173ffffffffffffffffffffffffffffffffffffffff021916908373ffffffffffffffffffffffffffffffffffffffff160217905550808273ffffffffffffffffffffffffffffffffffffffff166120c883610ce1565b73ffffffffffffffffffffffffffffffffffffffff167f8c5be1e5ebec7d5bd14f71427d1e84f3dd0314c0f7b2291e5b200ac8c7c3b92560405160405180910390a45050565b60008073ffffffffffffffffffffffffffffffffffffffff166002600084815260200190815260200160002060009054906101000a900473ffffffffffffffffffffffffffffffffffffffff1673ffffffffffffffffffffffffffffffffffffffff1614159050919050565b60008183612188919061445e565b905092915050565b6000818361219e91906144e7565b905092915050565b600081836121b49190614518565b905092915050565b6000806121c883610ce1565b90508073ffffffffffffffffffffffffffffffffffffffff168473ffffffffffffffffffffffffffffffffffffffff16148061220a575061220981856113d7565b5b8061224857508373ffffffffffffffffffffffffffffffffffffffff1661223084610563565b73ffffffffffffffffffffffffffffffffffffffff16145b91505092915050565b8273ffffffffffffffffffffffffffffffffffffffff1661227182610ce1565b73ffffffffffffffffffffffffffffffffffffffff16146122c7576040517f08c379a00000000000000000000000000000000000000000000000000000000081526004016122be906145e0565b60405180910390fd5b600073ffffffffffffffffffffffffffffffffffffffff168273ffffffffffffffffffffffffffffffffffffffff161415612337576040517f08c379a000000000000000000000000000000000000000000000000000000000815260040161232e90614672565b60405180910390fd5b612342838383612b70565b61234d600082612055565b6001600360008573ffffffffffffffffffffffffffffffffffffffff1673ffffffffffffffffffffffffffffffffffffffff168152602001908152602001600020600082825461239d9190614692565b925050819055506001600360008473ffffffffffffffffffffffffffffffffffffffff1673ffffffffffffffffffffffffffffffffffffffff16815260200190815260200160002060008282546123f49190614518565b92505081905550816002600083815260200190815260200160002060006101000a81548173ffffffffffffffffffffffffffffffffffffffff021916908373ffffffffffffffffffffffffffffffffffffffff160217905550808273ffffffffffffffffffffffffffffffffffffffff168473ffffffffffffffffffffffffffffffffffffffff167fddf252ad1be2c89b69c2b068fc378daa952ba7f163c4a11628f55a4df523b3ef60405160405180910390a46124b3838383612c84565b505050565b8173ffffffffffffffffffffffffffffffffffffffff168373ffffffffffffffffffffffffffffffffffffffff161415612527576040517f08c379a000000000000000000000000000000000000000000000000000000000815260040161251e90614712565b60405180910390fd5b80600560008573ffffffffffffffffffffffffffffffffffffffff1673ffffffffffffffffffffffffffffffffffffffff16815260200190815260200160002060008473ffffffffffffffffffffffffffffffffffffffff1673ffffffffffffffffffffffffffffffffffffffff16815260200190815260200160002060006101000a81548160ff0219169083151502179055508173ffffffffffffffffffffffffffffffffffffffff168373ffffffffffffffffffffffffffffffffffffffff167f17307eab39ab6107e8899845ad3d59bd9653f200f220920489ca2b5937696c3183604051612618919061327e565b60405180910390a3505050565b600061263082610ce1565b905061263e81600084612b70565b612649600083612055565b6001600360008373ffffffffffffffffffffffffffffffffffffffff1673ffffffffffffffffffffffffffffffffffffffff16815260200190815260200160002060008282546126999190614692565b925050819055506002600083815260200190815260200160002060006101000a81549073ffffffffffffffffffffffffffffffffffffffff021916905581600073ffffffffffffffffffffffffffffffffffffffff168273ffffffffffffffffffffffffffffffffffffffff167fddf252ad1be2c89b69c2b068fc378daa952ba7f163c4a11628f55a4df523b3ef60405160405180910390a461273e81600084612c84565b5050565b61274d848484612251565b61275984848484612c89565b612798576040517f08c379a000000000000000000000000000000000000000000000000000000000815260040161278f906147a4565b60405180910390fd5b50505050565b606060405180602001604052806000815250905090565b606060008214156127fd576040518060400160405280600181526020017f30000000000000000000000000000000000000000000000000000000000000008152509050612911565b600082905060005b6000821461282f57808061281890614317565b915050600a8261282891906144e7565b9150612805565b60008167ffffffffffffffff81111561284b5761284a61359f565b5b6040519080825280601f01601f19166020018201604052801561287d5781602001600182028036833780820191505090505b5090505b6000851461290a576001826128969190614692565b9150600a856128a591906147c4565b60306128b19190614518565b60f81b8183815181106128c7576128c6613e42565b5b60200101907effffffffffffffffffffffffffffffffffffffffffffffffffffffffffffff1916908160001a905350600a8561290391906144e7565b9450612881565b8093505050505b919050565b600073ffffffffffffffffffffffffffffffffffffffff168273ffffffffffffffffffffffffffffffffffffffff161415612986576040517f08c379a000000000000000000000000000000000000000000000000000000000815260040161297d90614841565b60405180910390fd5b61298f8161210e565b156129cf576040517f08c379a00000000000000000000000000000000000000000000000000000000081526004016129c6906148ad565b60405180910390fd5b6129db60008383612b70565b6001600360008473ffffffffffffffffffffffffffffffffffffffff1673ffffffffffffffffffffffffffffffffffffffff1681526020019081526020016000206000828254612a2b9190614518565b92505081905550816002600083815260200190815260200160002060006101000a81548173ffffffffffffffffffffffffffffffffffffffff021916908373ffffffffffffffffffffffffffffffffffffffff160217905550808273ffffffffffffffffffffffffffffffffffffffff16600073ffffffffffffffffffffffffffffffffffffffff167fddf252ad1be2c89b69c2b068fc378daa952ba7f163c4a11628f55a4df523b3ef60405160405180910390a4612aec60008383612c84565b5050565b60008183612afe9190614692565b905092915050565b60007f01ffc9a7000000000000000000000000000000000000000000000000000000007bffffffffffffffffffffffffffffffffffffffffffffffffffffffff1916827bffffffffffffffffffffffffffffffffffffffffffffffffffffffff1916149050919050565b612b7b838383612e20565b600073ffffffffffffffffffffffffffffffffffffffff168373ffffffffffffffffffffffffffffffffffffffff161415612bbe57612bb981612e25565b612bfd565b8173ffffffffffffffffffffffffffffffffffffffff168373ffffffffffffffffffffffffffffffffffffffff1614612bfc57612bfb8382612e6e565b5b5b600073ffffffffffffffffffffffffffffffffffffffff168273ffffffffffffffffffffffffffffffffffffffff161415612c4057612c3b81612fdb565b612c7f565b8273ffffffffffffffffffffffffffffffffffffffff168273ffffffffffffffffffffffffffffffffffffffff1614612c7e57612c7d82826130ac565b5b5b505050565b505050565b6000612caa8473ffffffffffffffffffffffffffffffffffffffff1661312b565b15612e13578373ffffffffffffffffffffffffffffffffffffffff1663150b7a02612cd361204d565b8786866040518563ffffffff1660e01b8152600401612cf59493929190614922565b602060405180830381600087803b158015612d0f57600080fd5b505af1925050508015612d4057506040513d601f19601f82011682018060405250810190612d3d9190614983565b60015b612dc3573d8060008114612d70576040519150601f19603f3d011682016040523d82523d6000602084013e612d75565b606091505b50600081511415612dbb576040517f08c379a0000000000000000000000000000000000000000000000000000000008152600401612db2906147a4565b60405180910390fd5b805181602001fd5b63150b7a0260e01b7bffffffffffffffffffffffffffffffffffffffffffffffffffffffff1916817bffffffffffffffffffffffffffffffffffffffffffffffffffffffff191614915050612e18565b600190505b949350505050565b505050565b6008805490506009600083815260200190815260200160002081905550600881908060018154018082558091505060019003906000526020600020016000909190919091505550565b60006001612e7b84610d93565b612e859190614692565b9050600060076000848152602001908152602001600020549050818114612f6a576000600660008673ffffffffffffffffffffffffffffffffffffffff1673ffffffffffffffffffffffffffffffffffffffff168152602001908152602001600020600084815260200190815260200160002054905080600660008773ffffffffffffffffffffffffffffffffffffffff1673ffffffffffffffffffffffffffffffffffffffff168152602001908152602001600020600084815260200190815260200160002081905550816007600083815260200190815260200160002081905550505b6007600084815260200190815260200160002060009055600660008573ffffffffffffffffffffffffffffffffffffffff1673ffffffffffffffffffffffffffffffffffffffff16815260200190815260200160002060008381526020019081526020016000206000905550505050565b60006001600880549050612fef9190614692565b905060006009600084815260200190815260200160002054905060006008838154811061301f5761301e613e42565b5b90600052602060002001549050806008838154811061304157613040613e42565b5b9060005260206000200181905550816009600083815260200190815260200160002081905550600960008581526020019081526020016000206000905560088054806130905761308f6149b0565b5b6001900381819060005260206000200160009055905550505050565b60006130b783610d93565b905081600660008573ffffffffffffffffffffffffffffffffffffffff1673ffffffffffffffffffffffffffffffffffffffff168152602001908152602001600020600083815260200190815260200160002081905550806007600084815260200190815260200160002081905550505050565b6000808273ffffffffffffffffffffffffffffffffffffffff163b119050919050565b604051806101200160405280600073ffffffffffffffffffffffffffffffffffffffff1681526020016000815260200160008152602001600081526020016000815260200160008152602001600073ffffffffffffffffffffffffffffffffffffffff1681526020016000151581526020016000151581525090565b6000604051905090565b600080fd5b600080fd5b60007fffffffff0000000000000000000000000000000000000000000000000000000082169050919050565b613213816131de565b811461321e57600080fd5b50565b6000813590506132308161320a565b92915050565b60006020828403121561324c5761324b6131d4565b5b600061325a84828501613221565b91505092915050565b60008115159050919050565b61327881613263565b82525050565b6000602082019050613293600083018461326f565b92915050565b600081519050919050565b600082825260208201905092915050565b60005b838110156132d35780820151818401526020810190506132b8565b838111156132e2576000848401525b50505050565b6000601f19601f8301169050919050565b600061330482613299565b61330e81856132a4565b935061331e8185602086016132b5565b613327816132e8565b840191505092915050565b6000602082019050818103600083015261334c81846132f9565b905092915050565b6000819050919050565b61336781613354565b811461337257600080fd5b50565b6000813590506133848161335e565b92915050565b6000602082840312156133a05761339f6131d4565b5b60006133ae84828501613375565b91505092915050565b600073ffffffffffffffffffffffffffffffffffffffff82169050919050565b60006133e2826133b7565b9050919050565b6133f2816133d7565b82525050565b600060208201905061340d60008301846133e9565b92915050565b61341c816133d7565b811461342757600080fd5b50565b60008135905061343981613413565b92915050565b60008060408385031215613456576134556131d4565b5b60006134648582860161342a565b925050602061347585828601613375565b9150509250929050565b61348881613354565b82525050565b60006020820190506134a3600083018461347f565b92915050565b6000806000606084860312156134c2576134c16131d4565b5b60006134d08682870161342a565b93505060206134e18682870161342a565b92505060406134f286828701613375565b9150509250925092565b600060208284031215613512576135116131d4565b5b60006135208482850161342a565b91505092915050565b61353281613263565b811461353d57600080fd5b50565b60008135905061354f81613529565b92915050565b6000806040838503121561356c5761356b6131d4565b5b600061357a8582860161342a565b925050602061358b85828601613540565b9150509250929050565b600080fd5b600080fd5b7f4e487b7100000000000000000000000000000000000000000000000000000000600052604160045260246000fd5b6135d7826132e8565b810181811067ffffffffffffffff821117156135f6576135f561359f565b5b80604052505050565b60006136096131ca565b905061361582826135ce565b919050565b600067ffffffffffffffff8211156136355761363461359f565b5b61363e826132e8565b9050602081019050919050565b82818337600083830152505050565b600061366d6136688461361a565b6135ff565b9050828152602081018484840111156136895761368861359a565b5b61369484828561364b565b509392505050565b600082601f8301126136b1576136b0613595565b5b81356136c184826020860161365a565b91505092915050565b600080600080608085870312156136e4576136e36131d4565b5b60006136f28782880161342a565b94505060206137038782880161342a565b935050604061371487828801613375565b925050606085013567ffffffffffffffff811115613735576137346131d9565b5b6137418782880161369c565b91505092959194509250565b60008060408385031215613764576137636131d4565b5b60006137728582860161342a565b92505060206137838582860161342a565b9150509250929050565b600080600080600060a086880312156137a9576137a86131d4565b5b60006137b78882890161342a565b95505060206137c888828901613375565b94505060406137d988828901613375565b93505060606137ea88828901613375565b92505060806137fb88828901613375565b9150509295509295909350565b613811816133d7565b82525050565b61382081613354565b82525050565b61382f81613263565b82525050565b6101208201600082015161384c6000850182613808565b50602082015161385f6020850182613817565b5060408201516138726040850182613817565b5060608201516138856060850182613817565b5060808201516138986080850182613817565b5060a08201516138ab60a0850182613817565b5060c08201516138be60c0850182613808565b5060e08201516138d160e0850182613826565b506101008201516138e6610100850182613826565b50505050565b6000610120820190506139026000830184613835565b92915050565b7f4e487b7100000000000000000000000000000000000000000000000000000000600052602260045260246000fd5b6000600282049050600182168061394f57607f821691505b6020821081141561396357613962613908565b5b50919050565b7f4552433732313a20617070726f76616c20746f2063757272656e74206f776e6560008201527f7200000000000000000000000000000000000000000000000000000000000000602082015250565b60006139c56021836132a4565b91506139d082613969565b604082019050919050565b600060208201905081810360008301526139f4816139b8565b9050919050565b7f4552433732313a20617070726f76652063616c6c6572206973206e6f7420746f60008201527f6b656e206f776e6572206e6f7220617070726f76656420666f7220616c6c0000602082015250565b6000613a57603e836132a4565b9150613a62826139fb565b604082019050919050565b60006020820190508181036000830152613a8681613a4a565b9050919050565b7f746f6b656e20646f6573206e6f74206578697374000000000000000000000000600082015250565b6000613ac36014836132a4565b9150613ace82613a8d565b602082019050919050565b60006020820190508181036000830152613af281613ab6565b9050919050565b7f43616e6e6f7420626f72726f7720746f20796f757273656c6600000000000000600082015250565b6000613b2f6019836132a4565b9150613b3a82613af9565b602082019050919050565b60006020820190508181036000830152613b5e81613b22565b9050919050565b600081519050613b748161335e565b92915050565b600060208284031215613b9057613b8f6131d4565b5b6000613b9e84828501613b65565b91505092915050565b7f496e73756666696369656e742066756e64730000000000000000000000000000600082015250565b6000613bdd6012836132a4565b9150613be882613ba7565b602082019050919050565b60006020820190508181036000830152613c0c81613bd0565b9050919050565b6000606082019050613c2860008301866133e9565b613c3560208301856133e9565b613c42604083018461347f565b949350505050565b600081519050613c5981613529565b92915050565b600060208284031215613c7557613c746131d4565b5b6000613c8384828501613c4a565b91505092915050565b7f4552433732313a2063616c6c6572206973206e6f7420746f6b656e206f776e6560008201527f72206e6f7220617070726f766564000000000000000000000000000000000000602082015250565b6000613ce8602e836132a4565b9150613cf382613c8c565b604082019050919050565b60006020820190508181036000830152613d1781613cdb565b9050919050565b7f455243373231456e756d657261626c653a206f776e657220696e646578206f7560008201527f74206f6620626f756e6473000000000000000000000000000000000000000000602082015250565b6000613d7a602b836132a4565b9150613d8582613d1e565b604082019050919050565b60006020820190508181036000830152613da981613d6d565b9050919050565b7f455243373231456e756d657261626c653a20676c6f62616c20696e646578206f60008201527f7574206f6620626f756e64730000000000000000000000000000000000000000602082015250565b6000613e0c602c836132a4565b9150613e1782613db0565b604082019050919050565b60006020820190508181036000830152613e3b81613dff565b9050919050565b7f4e487b7100000000000000000000000000000000000000000000000000000000600052603260045260246000fd5b7f4552433732313a20696e76616c696420746f6b656e2049440000000000000000600082015250565b6000613ea76018836132a4565b9150613eb282613e71565b602082019050919050565b60006020820190508181036000830152613ed681613e9a565b9050919050565b7f4552433732313a2061646472657373207a65726f206973206e6f74206120766160008201527f6c6964206f776e65720000000000000000000000000000000000000000000000602082015250565b6000613f396029836132a4565b9150613f4482613edd565b604082019050919050565b60006020820190508181036000830152613f6881613f2c565b9050919050565b600081519050613f7e81613413565b92915050565b600060208284031215613f9a57613f996131d4565b5b6000613fa884828501613f6f565b91505092915050565b7f596f7520646f206e6f74206f776e20746865204e465400000000000000000000600082015250565b6000613fe76016836132a4565b9150613ff282613fb1565b602082019050919050565b6000602082019050818103600083015261401681613fda565b9050919050565b600060408201905061403260008301856133e9565b61403f602083018461347f565b9392505050565b600081905092915050565b600061405c82613299565b6140668185614046565b93506140768185602086016132b5565b80840191505092915050565b600061408e8285614051565b915061409a8284614051565b91508190509392505050565b7f45524352656e7461626c6532303a20746f6b656e20616464726573732073686f60008201527f756c64206e6f7420626520746865207a65726f20616464726573730000000000602082015250565b6000614102603b836132a4565b915061410d826140a6565b604082019050919050565b60006020820190508181036000830152614131816140f5565b9050919050565b7f52656e7461626c653a206665652063616e6e6f74206265207a65726f00000000600082015250565b600061416e601c836132a4565b915061417982614138565b602082019050919050565b6000602082019050818103600083015261419d81614161565b9050919050565b7f72656e7461626c653a206465706f7369742063616e6e6f74206265207a65726f600082015250565b60006141da6020836132a4565b91506141e5826141a4565b602082019050919050565b60006020820190508181036000830152614209816141cd565b9050919050565b7f6475726174696f6e2063616e6e6f74206265207a65726f000000000000000000600082015250565b60006142466017836132a4565b915061425182614210565b602082019050919050565b6000602082019050818103600083015261427581614239565b9050919050565b7f596f7520646f206e6f74206f776e2074686520746f6b656e0000000000000000600082015250565b60006142b26018836132a4565b91506142bd8261427c565b602082019050919050565b600060208201905081810360008301526142e1816142a5565b9050919050565b7f4e487b7100000000000000000000000000000000000000000000000000000000600052601160045260246000fd5b600061432282613354565b91507fffffffffffffffffffffffffffffffffffffffffffffffffffffffffffffffff821415614355576143546142e8565b5b600182019050919050565b7f546f6b656e206e6f742072656e746564206f72206f7264657220636f6d706c6560008201527f7465000000000000000000000000000000000000000000000000000000000000602082015250565b60006143bc6022836132a4565b91506143c782614360565b604082019050919050565b600060208201905081810360008301526143eb816143af565b9050919050565b7f4e6f7420726561647920746f206c697175696461746500000000000000000000600082015250565b60006144286016836132a4565b9150614433826143f2565b602082019050919050565b600060208201905081810360008301526144578161441b565b9050919050565b600061446982613354565b915061447483613354565b9250817fffffffffffffffffffffffffffffffffffffffffffffffffffffffffffffffff04831182151516156144ad576144ac6142e8565b5b828202905092915050565b7f4e487b7100000000000000000000000000000000000000000000000000000000600052601260045260246000fd5b60006144f282613354565b91506144fd83613354565b92508261450d5761450c6144b8565b5b828204905092915050565b600061452382613354565b915061452e83613354565b9250827fffffffffffffffffffffffffffffffffffffffffffffffffffffffffffffffff03821115614563576145626142e8565b5b828201905092915050565b7f4552433732313a207472616e736665722066726f6d20696e636f72726563742060008201527f6f776e6572000000000000000000000000000000000000000000000000000000602082015250565b60006145ca6025836132a4565b91506145d58261456e565b604082019050919050565b600060208201905081810360008301526145f9816145bd565b9050919050565b7f4552433732313a207472616e7366657220746f20746865207a65726f2061646460008201527f7265737300000000000000000000000000000000000000000000000000000000602082015250565b600061465c6024836132a4565b915061466782614600565b604082019050919050565b6000602082019050818103600083015261468b8161464f565b9050919050565b600061469d82613354565b91506146a883613354565b9250828210156146bb576146ba6142e8565b5b828203905092915050565b7f4552433732313a20617070726f766520746f2063616c6c657200000000000000600082015250565b60006146fc6019836132a4565b9150614707826146c6565b602082019050919050565b6000602082019050818103600083015261472b816146ef565b9050919050565b7f4552433732313a207472616e7366657220746f206e6f6e20455243373231526560008201527f63656976657220696d706c656d656e7465720000000000000000000000000000602082015250565b600061478e6032836132a4565b915061479982614732565b604082019050919050565b600060208201905081810360008301526147bd81614781565b9050919050565b60006147cf82613354565b91506147da83613354565b9250826147ea576147e96144b8565b5b828206905092915050565b7f4552433732313a206d696e7420746f20746865207a65726f2061646472657373600082015250565b600061482b6020836132a4565b9150614836826147f5565b602082019050919050565b6000602082019050818103600083015261485a8161481e565b9050919050565b7f4552433732313a20746f6b656e20616c7265616479206d696e74656400000000600082015250565b6000614897601c836132a4565b91506148a282614861565b602082019050919050565b600060208201905081810360008301526148c68161488a565b9050919050565b600081519050919050565b600082825260208201905092915050565b60006148f4826148cd565b6148fe81856148d8565b935061490e8185602086016132b5565b614917816132e8565b840191505092915050565b600060808201905061493760008301876133e9565b61494460208301866133e9565b614951604083018561347f565b818103606083015261496381846148e9565b905095945050505050565b60008151905061497d8161320a565b92915050565b600060208284031215614999576149986131d4565b5b60006149a78482850161496e565b91505092915050565b7f4e487b7100000000000000000000000000000000000000000000000000000000600052603160045260246000fdfea2646970667358221220a68a2038bbdcdd958f4f6f84c4590a693aca66af8f8461597527e66dd205295164736f6c63430008090033",
  "linkReferences": {},
  "deployedLinkReferences": {}
}